S00D000041494453332E73726563C3
S11300000C9434000C943E000C943E000C943E007E
S11300100C943E000C943E000C943E000C943E0064
S11300200C943E000C943E000C943E000C943E0054
S11300300C943E000C943E000C943E000C943E0044
S11300400C943E000C943E000C943E000C943E0034
S11300500C943E000C943E000C943E000C943E0024
S11300600C943E000C943E0011241FBECFEFD8E048
S1130070DEBFCDBF0E9459000C9479010C9400009E
S1130080ECE7F0E090E490839081892B8083EAE7A9
S1130090F0E0808180658083808184FFFDCFEAE782
S11300A0F0E080818F7B808380917800909179004B
S11300B00895E1E6F0E080E88083108217B88FEFBE
S11300C08AB984B993EA94BD82E085BD9093B00067
S11300D08093B100EAE7F0E0808180688083109229
S11300E0C50083E38093C400E2ECF0E08081866085
S11300F08083E1ECF0E08081886080831EEEC4EBB5
S1130100D0E00F2EF7E33F2EF02D0F2EFCE32F2E21
S1130110F02D0FEF81E090E00E944000BC0180E0F0
S113012090E00E9413016B017C0183E090E00E9447
S11301304000BC0180E090E00E9413012B013C01CF
S113014082E090E00E944000BC0180E090E00E94C8
S113015013014B015C018FEC97E00197F1F700C0AC
S1130160000020E030E04AEF53E4C501B4010E94EE
S113017074011816BCF420E030E04AEF53E4C701E0
S1130180B6010E940E018823BCF420E030E04AEF5F
S113019053E4C301B2010E940E0188236CF418BD1C
S11301A00883B8CF20E030E04AEF53E4C501B4013E
S11301B00E9474011816BCF420E030E04AEF53E4C6
S11301C0C701B6010E94740118166CF420E030E0F7
S11301D04AEF53E4C301B2010E94740118166CF48F
S11301E018BD088397CF20E030E04AEF53E4C701FD
S11301F0B6010E94740118161CF418BD38828ACF07
S113020020E030E04AEF53E4C301B2010E947401DC
S113021018160CF07FCF28BC08837CCF0E945001B5
S113022008F481E00895E89409C097FB3EF49095A2
S11302308095709561957F4F8F4F9F4F9923A9F0BB
S1130240F92F96E9BB279395F6958795779567954A
S1130250B795F111F8CFFAF4BB0F11F460FF1BC08E
S11302606F5F7F4F8F4F9F4F16C0882311F096E921
S113027011C0772321F09EE8872F762F05C06623CF
S113028071F096E8862F70E060E02AF09A95660F88
S1130290771F881FDAF7880F9695879597F9089541
S11302A0990F0008550FAA0BE0E8FEEF1616170683
S11302B0E807F907C0F012161306E407F50798F0EB
S11302C0621B730B840B950B39F40A2661F0232B04
S11302D0242B252B21F408950A2609F4A140A69580
S11302E08FEF811D811D08950E94500108F48FEF46
S10902F00895F894FFCF0D
S9030000FC
